{
  "contractName": "Phoenix",
  "abi": [
    {
      "inputs": [],
      "stateMutability": "nonpayable",
      "type": "constructor"
    },
    {
      "inputs": [
        {
          "internalType": "string",
          "name": "name_postfix",
          "type": "string"
        },
        {
          "internalType": "string",
          "name": "symbol_postfix",
          "type": "string"
        }
      ],
      "name": "spawn",
      "outputs": [
        {
          "internalType": "address",
          "name": "",
          "type": "address"
        }
      ],
      "stateMutability": "nonpayable",
      "type": "function"
    },
    {
      "inputs": [],
      "name": "children",
      "outputs": [
        {
          "internalType": "address[]",
          "name": "",
          "type": "address[]"
        }
      ],
      "stateMutability": "view",
      "type": "function",
      "constant": true
    }
  ],
  "bytecode": "0x60806040526040518060400160405280601581526020017f50686f656e697820546f6b656e20466163746f727900000000000000000000008152506001908051906020019061004f9291906100a2565b5034801561005c57600080fd5b50336000806101000a81548173ffffffffffffffffffffffffffffffffffffffff021916908373ffffffffffffffffffffffffffffffffffffffff1602179055506101a6565b8280546100ae90610145565b90600052602060002090601f0160209004810192826100d05760008555610117565b82601f106100e957805160ff1916838001178555610117565b82800160010185558215610117579182015b828111156101165782518255916020019190600101906100fb565b5b5090506101249190610128565b5090565b5b80821115610141576000816000905550600101610129565b5090565b6000600282049050600182168061015d57607f821691505b6020821081141561017157610170610177565b5b50919050565b7f4e487b7100000000000000000000000000000000000000000000000000000000600052602260045260246000fd5b61213a806101b56000396000f3fe60806040523480156200001157600080fd5b50600436106200003a5760003560e01c8063c2bc80fd146200003f578063e7a5b4f41462000061575b600080fd5b6200004962000097565b60405162000058919062000534565b60405180910390f35b6200007f6004803603810190620000799190620002a5565b62000127565b6040516200008e919062000517565b60405180910390f35b606060028054806020026020016040519081016040528092919081815260200182805480156200011d57602002820191906000526020600020905b8160009054906101000a900473ffffffffffffffffffffffffffffffffffffffff1673ffffffffffffffffffffffffffffffffffffffff1681526020019060010190808311620000d2575b5050505050905090565b600080836040516020016200013d9190620004cb565b6040516020818303038152906040529050600083604051602001620001639190620004f1565b6040516020818303038152906040529050600082826064604051620001889062000225565b620001969392919062000558565b604051809103906000f080158015620001b3573d6000803e3d6000fd5b5090506002819080600181540180825580915050600190039060005260206000200160009091909190916101000a81548173ffffffffffffffffffffffffffffffffffffffff021916908373ffffffffffffffffffffffffffffffffffffffff16021790555080935050505092915050565b6119c3806200074283390190565b60006200024a6200024484620005d7565b620005a3565b9050828152602081018484840111156200026357600080fd5b62000270848285620006bc565b509392505050565b600082601f8301126200028a57600080fd5b81356200029c84826020860162000233565b91505092915050565b60008060408385031215620002b957600080fd5b600083013567ffffffffffffffff811115620002d457600080fd5b620002e28582860162000278565b925050602083013567ffffffffffffffff8111156200030057600080fd5b6200030e8582860162000278565b9150509250929050565b600062000326838362000332565b60208301905092915050565b6200033d816200066a565b82525050565b6200034e816200066a565b82525050565b600062000361826200061a565b6200036d81856200063d565b93506200037a836200060a565b8060005b83811015620003b157815162000395888262000318565b9750620003a28362000630565b9250506001810190506200037e565b5085935050505092915050565b620003c981620006a8565b82525050565b6000620003dc8262000625565b620003e881856200064e565b9350620003fa818560208601620006cb565b620004058162000730565b840191505092915050565b60006200041d8262000625565b6200042981856200065f565b93506200043b818560208601620006cb565b80840191505092915050565b6000620004566009836200065f565b91507f43726561747572652000000000000000000000000000000000000000000000006000830152600982019050919050565b6000620004986004836200065f565b91507f50686e78000000000000000000000000000000000000000000000000000000006000830152600482019050919050565b6000620004d88262000447565b9150620004e6828462000410565b915081905092915050565b6000620004fe8262000489565b91506200050c828462000410565b915081905092915050565b60006020820190506200052e600083018462000343565b92915050565b6000602082019050818103600083015262000550818462000354565b905092915050565b60006060820190508181036000830152620005748186620003cf565b905081810360208301526200058a8185620003cf565b90506200059b6040830184620003be565b949350505050565b6000604051905081810181811067ffffffffffffffff82111715620005cd57620005cc62000701565b5b8060405250919050565b600067ffffffffffffffff821115620005f557620005f462000701565b5b601f19601f8301169050602081019050919050565b6000819050602082019050919050565b600081519050919050565b600081519050919050565b6000602082019050919050565b600082825260208201905092915050565b600082825260208201905092915050565b600081905092915050565b600062000677826200067e565b9050919050565b600073ffffffffffffffffffffffffffffffffffffffff82169050919050565b6000819050919050565b6000620006b5826200069e565b9050919050565b82818337600083830152505050565b60005b83811015620006eb578082015181840152602081019050620006ce565b83811115620006fb576000848401525b50505050565b7f4e487b7100000000000000000000000000000000000000000000000000000000600052604160045260246000fd5b6000601f19601f830116905091905056fe60806040523480156200001157600080fd5b50604051620019c3380380620019c383398181016040528101906200003791906200032b565b8282816003908051906020019062000051929190620001f2565b5080600490805190602001906200006a929190620001f2565b5050506200007f33826200008860201b60201c565b50505062000637565b600073ffffffffffffffffffffffffffffffffffffffff168273ffffffffffffffffffffffffffffffffffffffff161415620000fb576040517f08c379a0000000000000000000000000000000000000000000000000000000008152600401620000f29062000406565b60405180910390fd5b6200010f60008383620001ed60201b60201c565b8060026000828254620001239190620004bd565b92505081905550806000808473ffffffffffffffffffffffffffffffffffffffff1673ffffffffffffffffffffffffffffffffffffffff16815260200190815260200160002060008282546200017a9190620004bd565b925050819055508173ffffffffffffffffffffffffffffffffffffffff16600073ffffffffffffffffffffffffffffffffffffffff167fddf252ad1be2c89b69c2b068fc378daa952ba7f163c4a11628f55a4df523b3ef83604051620001e1919062000428565b60405180910390a35050565b505050565b82805462000200906200055a565b90600052602060002090601f01602090048101928262000224576000855562000270565b82601f106200023f57805160ff191683800117855562000270565b8280016001018555821562000270579182015b828111156200026f57825182559160200191906001019062000252565b5b5090506200027f919062000283565b5090565b5b808211156200029e57600081600090555060010162000284565b5090565b6000620002b9620002b38462000479565b62000445565b905082815260208101848484011115620002d257600080fd5b620002df84828562000524565b509392505050565b600082601f830112620002f957600080fd5b81516200030b848260208601620002a2565b91505092915050565b60008151905062000325816200061d565b92915050565b6000806000606084860312156200034157600080fd5b600084015167ffffffffffffffff8111156200035c57600080fd5b6200036a86828701620002e7565b935050602084015167ffffffffffffffff8111156200038857600080fd5b6200039686828701620002e7565b9250506040620003a98682870162000314565b9150509250925092565b6000620003c2601f83620004ac565b91507f45524332303a206d696e7420746f20746865207a65726f2061646472657373006000830152602082019050919050565b62000400816200051a565b82525050565b600060208201905081810360008301526200042181620003b3565b9050919050565b60006020820190506200043f6000830184620003f5565b92915050565b6000604051905081810181811067ffffffffffffffff821117156200046f576200046e620005ee565b5b8060405250919050565b600067ffffffffffffffff821115620004975762000496620005ee565b5b601f19601f8301169050602081019050919050565b600082825260208201905092915050565b6000620004ca826200051a565b9150620004d7836200051a565b9250827fffffffffffffffffffffffffffffffffffffffffffffffffffffffffffffffff038211156200050f576200050e62000590565b5b828201905092915050565b6000819050919050565b60005b838110156200054457808201518184015260208101905062000527565b8381111562000554576000848401525b50505050565b600060028204905060018216806200057357607f821691505b602082108114156200058a5762000589620005bf565b5b50919050565b7f4e487b7100000000000000000000000000000000000000000000000000000000600052601160045260246000fd5b7f4e487b7100000000000000000000000000000000000000000000000000000000600052602260045260246000fd5b7f4e487b7100000000000000000000000000000000000000000000000000000000600052604160045260246000fd5b62000628816200051a565b81146200063457600080fd5b50565b61137c80620006476000396000f3fe608060405234801561001057600080fd5b50600436106100a95760003560e01c80633950935111610071578063395093511461016857806370a082311461019857806395d89b41146101c8578063a457c2d7146101e6578063a9059cbb14610216578063dd62ed3e14610246576100a9565b806306fdde03146100ae578063095ea7b3146100cc57806318160ddd146100fc57806323b872dd1461011a578063313ce5671461014a575b600080fd5b6100b6610276565b6040516100c39190611011565b60405180910390f35b6100e660048036038101906100e19190610c8a565b610308565b6040516100f39190610ff6565b60405180910390f35b610104610326565b6040516101119190611113565b60405180910390f35b610134600480360381019061012f9190610c3b565b610330565b6040516101419190610ff6565b60405180910390f35b610152610431565b60405161015f919061112e565b60405180910390f35b610182600480360381019061017d9190610c8a565b610436565b60405161018f9190610ff6565b60405180910390f35b6101b260048036038101906101ad9190610bd6565b6104e2565b6040516101bf9190611113565b60405180910390f35b6101d061052a565b6040516101dd9190611011565b60405180910390f35b61020060048036038101906101fb9190610c8a565b6105bc565b60405161020d9190610ff6565b60405180910390f35b610230600480360381019061022b9190610c8a565b6106b0565b60405161023d9190610ff6565b60405180910390f35b610260600480360381019061025b9190610bff565b6106ce565b60405161026d9190611113565b60405180910390f35b60606003805461028590611277565b80601f01602080910402602001604051908101604052809291908181526020018280546102b190611277565b80156102fe5780601f106102d3576101008083540402835291602001916102fe565b820191906000526020600020905b8154815290600101906020018083116102e157829003601f168201915b5050505050905090565b600061031c610315610755565b848461075d565b6001905092915050565b6000600254905090565b600061033d848484610928565b6000600160008673ffffffffffffffffffffffffffffffffffffffff1673ffffffffffffffffffffffffffffffffffffffff1681526020019081526020016000206000610388610755565b73ffffffffffffffffffffffffffffffffffffffff1673ffffffffffffffffffffffffffffffffffffffff16815260200190815260200160002054905082811015610408576040517f08c379a00000000000000000000000000000000000000000000000000000000081526004016103ff90611093565b60405180910390fd5b61042585610414610755565b858461042091906111bb565b61075d565b60019150509392505050565b600090565b60006104d8610443610755565b848460016000610451610755565b73ffffffffffffffffffffffffffffffffffffffff1673ffffffffffffffffffffffffffffffffffffffff16815260200190815260200160002060008873ffffffffffffffffffffffffffffffffffffffff1673ffffffffffffffffffffffffffffffffffffffff168152602001908152602001600020546104d39190611165565b61075d565b6001905092915050565b60008060008373ffffffffffffffffffffffffffffffffffffffff1673ffffffffffffffffffffffffffffffffffffffff168152602001908152602001600020549050919050565b60606004805461053990611277565b80601f016020809104026020016040519081016040528092919081815260200182805461056590611277565b80156105b25780601f10610587576101008083540402835291602001916105b2565b820191906000526020600020905b81548152906001019060200180831161059557829003601f168201915b5050505050905090565b600080600160006105cb610755565b73ffffffffffffffffffffffffffffffffffffffff1673ffffffffffffffffffffffffffffffffffffffff16815260200190815260200160002060008573ffffffffffffffffffffffffffffffffffffffff1673ffffffffffffffffffffffffffffffffffffffff16815260200190815260200160002054905082811015610688576040517f08c379a000000000000000000000000000000000000000000000000000000000815260040161067f906110f3565b60405180910390fd5b6106a5610693610755565b8585846106a091906111bb565b61075d565b600191505092915050565b60006106c46106bd610755565b8484610928565b6001905092915050565b6000600160008473ffffffffffffffffffffffffffffffffffffffff1673ffffffffffffffffffffffffffffffffffffffff16815260200190815260200160002060008373ffffffffffffffffffffffffffffffffffffffff1673ffffffffffffffffffffffffffffffffffffffff16815260200190815260200160002054905092915050565b600033905090565b600073ffffffffffffffffffffffffffffffffffffffff168373ffffffffffffffffffffffffffffffffffffffff1614156107cd576040517f08c379a00000000000000000000000000000000000000000000000000000000081526004016107c4906110d3565b60405180910390fd5b600073ffffffffffffffffffffffffffffffffffffffff168273ffffffffffffffffffffffffffffffffffffffff16141561083d576040517f08c379a000000000000000000000000000000000000000000000000000000000815260040161083490611053565b60405180910390fd5b80600160008573ffffffffffffffffffffffffffffffffffffffff1673ffffffffffffffffffffffffffffffffffffffff16815260200190815260200160002060008473ffffffffffffffffffffffffffffffffffffffff1673ffffffffffffffffffffffffffffffffffffffff168152602001908152602001600020819055508173ffffffffffffffffffffffffffffffffffffffff168373ffffffffffffffffffffffffffffffffffffffff167f8c5be1e5ebec7d5bd14f71427d1e84f3dd0314c0f7b2291e5b200ac8c7c3b9258360405161091b9190611113565b60405180910390a3505050565b600073ffffffffffffffffffffffffffffffffffffffff168373ffffffffffffffffffffffffffffffffffffffff161415610998576040517f08c379a000000000000000000000000000000000000000000000000000000000815260040161098f906110b3565b60405180910390fd5b600073ffffffffffffffffffffffffffffffffffffffff168273ffffffffffffffffffffffffffffffffffffffff161415610a08576040517f08c379a00000000000000000000000000000000000000000000000000000000081526004016109ff90611033565b60405180910390fd5b610a13838383610ba7565b60008060008573ffffffffffffffffffffffffffffffffffffffff1673ffffffffffffffffffffffffffffffffffffffff16815260200190815260200160002054905081811015610a99576040517f08c379a0000000000000000000000000000000000000000000000000000000008152600401610a9090611073565b60405180910390fd5b8181610aa591906111bb565b6000808673ffffffffffffffffffffffffffffffffffffffff1673ffffffffffffffffffffffffffffffffffffffff16815260200190815260200160002081905550816000808573ffffffffffffffffffffffffffffffffffffffff1673ffffffffffffffffffffffffffffffffffffffff1681526020019081526020016000206000828254610b359190611165565b925050819055508273ffffffffffffffffffffffffffffffffffffffff168473ffffffffffffffffffffffffffffffffffffffff167fddf252ad1be2c89b69c2b068fc378daa952ba7f163c4a11628f55a4df523b3ef84604051610b999190611113565b60405180910390a350505050565b505050565b600081359050610bbb81611318565b92915050565b600081359050610bd08161132f565b92915050565b600060208284031215610be857600080fd5b6000610bf684828501610bac565b91505092915050565b60008060408385031215610c1257600080fd5b6000610c2085828601610bac565b9250506020610c3185828601610bac565b9150509250929050565b600080600060608486031215610c5057600080fd5b6000610c5e86828701610bac565b9350506020610c6f86828701610bac565b9250506040610c8086828701610bc1565b9150509250925092565b60008060408385031215610c9d57600080fd5b6000610cab85828601610bac565b9250506020610cbc85828601610bc1565b9150509250929050565b610ccf81611201565b82525050565b6000610ce082611149565b610cea8185611154565b9350610cfa818560208601611244565b610d0381611307565b840191505092915050565b6000610d1b602383611154565b91507f45524332303a207472616e7366657220746f20746865207a65726f206164647260008301527f65737300000000000000000000000000000000000000000000000000000000006020830152604082019050919050565b6000610d81602283611154565b91507f45524332303a20617070726f766520746f20746865207a65726f20616464726560008301527f73730000000000000000000000000000000000000000000000000000000000006020830152604082019050919050565b6000610de7602683611154565b91507f45524332303a207472616e7366657220616d6f756e742065786365656473206260008301527f616c616e636500000000000000000000000000000000000000000000000000006020830152604082019050919050565b6000610e4d602883611154565b91507f45524332303a207472616e7366657220616d6f756e742065786365656473206160008301527f6c6c6f77616e63650000000000000000000000000000000000000000000000006020830152604082019050919050565b6000610eb3602583611154565b91507f45524332303a207472616e736665722066726f6d20746865207a65726f20616460008301527f64726573730000000000000000000000000000000000000000000000000000006020830152604082019050919050565b6000610f19602483611154565b91507f45524332303a20617070726f76652066726f6d20746865207a65726f2061646460008301527f72657373000000000000000000000000000000000000000000000000000000006020830152604082019050919050565b6000610f7f602583611154565b91507f45524332303a2064656372656173656420616c6c6f77616e63652062656c6f7760008301527f207a65726f0000000000000000000000000000000000000000000000000000006020830152604082019050919050565b610fe18161122d565b82525050565b610ff081611237565b82525050565b600060208201905061100b6000830184610cc6565b92915050565b6000602082019050818103600083015261102b8184610cd5565b905092915050565b6000602082019050818103600083015261104c81610d0e565b9050919050565b6000602082019050818103600083015261106c81610d74565b9050919050565b6000602082019050818103600083015261108c81610dda565b9050919050565b600060208201905081810360008301526110ac81610e40565b9050919050565b600060208201905081810360008301526110cc81610ea6565b9050919050565b600060208201905081810360008301526110ec81610f0c565b9050919050565b6000602082019050818103600083015261110c81610f72565b9050919050565b60006020820190506111286000830184610fd8565b92915050565b60006020820190506111436000830184610fe7565b92915050565b600081519050919050565b600082825260208201905092915050565b60006111708261122d565b915061117b8361122d565b9250827fffffffffffffffffffffffffffffffffffffffffffffffffffffffffffffffff038211156111b0576111af6112a9565b5b828201905092915050565b60006111c68261122d565b91506111d18361122d565b9250828210156111e4576111e36112a9565b5b828203905092915050565b60006111fa8261120d565b9050919050565b60008115159050919050565b600073ffffffffffffffffffffffffffffffffffffffff82169050919050565b6000819050919050565b600060ff82169050919050565b60005b83811015611262578082015181840152602081019050611247565b83811115611271576000848401525b50505050565b6000600282049050600182168061128f57607f821691505b602082108114156112a3576112a26112d8565b5b50919050565b7f4e487b7100000000000000000000000000000000000000000000000000000000600052601160045260246000fd5b7f4e487b7100000000000000000000000000000000000000000000000000000000600052602260045260246000fd5b6000601f19601f8301169050919050565b611321816111ef565b811461132c57600080fd5b50565b6113388161122d565b811461134357600080fd5b5056fea2646970667358221220757da0f4cdb7c4c2db4af82cceb7ea717cf6844c3f9057301fb65f24655dee3964736f6c63430008000033a2646970667358221220d78075eb368f89336452149be50776dd120a920e3ba407c1c02c4d8b23c3957264736f6c63430008000033",
  "immutableReferences": {},
  "source": "pragma solidity ^0.8.0;\nimport \"./RebirthToken.sol\";\nimport \"@openzeppelin/contracts/token/ERC20/ERC20.sol\";\n\n\ncontract Phoenix {\n    address private _owner;\n    string private _name = \"Phoenix Token Factory\";\n    address[] private _children;  // Is it fine to delete from array in Solidity? Maybe I should use map?\n\n    constructor() {\n        _owner = msg.sender;\n    }\n\n    // Should be private and triggered by some other internal functions\n    function spawn(string memory name_postfix, string memory symbol_postfix) public returns (address) {\n        string memory name = string(abi.encodePacked(\"Creature \", name_postfix));\n        string memory symbol = string(abi.encodePacked(\"Phnx\", symbol_postfix));\n        address procreation = address(new RebirthToken(name, symbol, 100));\n        _children.push(procreation);\n        return procreation;\n    }\n\n    function children() public view returns (address[] memory){\n        return _children;\n    }\n}\n\n",
  "sourcePath": "/Users/y.sosunov/git/far_flare/Satellites/contracts/phoenix/Phoenix.sol",
  "compiler": {
    "name": "solc",
    "version": "0.8.0+commit.c7dfd78e.Emscripten.clang"
  },
  "schemaVersion": "3.3.4",
  "updatedAt": "2021-06-03T23:08:28.293Z",
  "networkType": "ethereum",
  "devdoc": {
    "kind": "dev",
    "methods": {},
    "version": 1
  },
  "userdoc": {
    "kind": "user",
    "methods": {},
    "version": 1
  }
}