{
  "contractName": "Phoenix",
  "abi": [
    {
      "inputs": [],
      "stateMutability": "nonpayable",
      "type": "constructor"
    },
    {
      "anonymous": false,
      "inputs": [
        {
          "indexed": false,
          "internalType": "address",
          "name": "who",
          "type": "address"
        }
      ],
      "name": "ShardsTransaction",
      "type": "event"
    },
    {
      "anonymous": false,
      "inputs": [
        {
          "indexed": false,
          "internalType": "address",
          "name": "item_address",
          "type": "address"
        },
        {
          "indexed": false,
          "internalType": "uint256",
          "name": "item_id",
          "type": "uint256"
        }
      ],
      "name": "Shatter",
      "type": "event"
    },
    {
      "inputs": [
        {
          "internalType": "address",
          "name": "item_address_",
          "type": "address"
        },
        {
          "internalType": "uint256",
          "name": "item_id_",
          "type": "uint256"
        },
        {
          "internalType": "uint256",
          "name": "item_price_",
          "type": "uint256"
        }
      ],
      "name": "allocate",
      "outputs": [],
      "stateMutability": "payable",
      "type": "function"
    },
    {
      "inputs": [
        {
          "internalType": "address",
          "name": "item_address_",
          "type": "address"
        },
        {
          "internalType": "uint256",
          "name": "item_id_",
          "type": "uint256"
        },
        {
          "internalType": "uint256",
          "name": "value",
          "type": "uint256"
        }
      ],
      "name": "deallocate",
      "outputs": [],
      "stateMutability": "nonpayable",
      "type": "function"
    },
    {
      "inputs": [
        {
          "internalType": "address",
          "name": "item_address_",
          "type": "address"
        },
        {
          "internalType": "uint256",
          "name": "item_id_",
          "type": "uint256"
        }
      ],
      "name": "getAllocation",
      "outputs": [
        {
          "internalType": "uint256",
          "name": "",
          "type": "uint256"
        },
        {
          "internalType": "uint256",
          "name": "",
          "type": "uint256"
        }
      ],
      "stateMutability": "view",
      "type": "function"
    },
    {
      "inputs": [
        {
          "internalType": "address",
          "name": "item_address_",
          "type": "address"
        },
        {
          "internalType": "uint256",
          "name": "item_id_",
          "type": "uint256"
        }
      ],
      "name": "totalLockedFor",
      "outputs": [
        {
          "internalType": "uint256",
          "name": "",
          "type": "uint256"
        }
      ],
      "stateMutability": "view",
      "type": "function"
    },
    {
      "inputs": [
        {
          "internalType": "address",
          "name": "shareholder_",
          "type": "address"
        },
        {
          "internalType": "address",
          "name": "item_address_",
          "type": "address"
        },
        {
          "internalType": "uint256",
          "name": "item_id_",
          "type": "uint256"
        }
      ],
      "name": "locksFor",
      "outputs": [
        {
          "internalType": "uint256",
          "name": "",
          "type": "uint256"
        }
      ],
      "stateMutability": "view",
      "type": "function"
    },
    {
      "inputs": [
        {
          "internalType": "address",
          "name": "item_address_",
          "type": "address"
        },
        {
          "internalType": "uint256",
          "name": "item_id_",
          "type": "uint256"
        }
      ],
      "name": "participantsFor",
      "outputs": [
        {
          "internalType": "uint256",
          "name": "",
          "type": "uint256"
        }
      ],
      "stateMutability": "view",
      "type": "function"
    },
    {
      "inputs": [
        {
          "internalType": "address",
          "name": "item_address_",
          "type": "address"
        },
        {
          "internalType": "uint256",
          "name": "item_id_",
          "type": "uint256"
        }
      ],
      "name": "shards",
      "outputs": [
        {
          "internalType": "address",
          "name": "",
          "type": "address"
        }
      ],
      "stateMutability": "view",
      "type": "function"
    },
    {
      "inputs": [
        {
          "internalType": "address",
          "name": "shard_token_address_",
          "type": "address"
        }
      ],
      "name": "shattered",
      "outputs": [
        {
          "internalType": "address",
          "name": "",
          "type": "address"
        },
        {
          "internalType": "uint256",
          "name": "",
          "type": "uint256"
        }
      ],
      "stateMutability": "view",
      "type": "function"
    }
  ],
  "bytecode": "0x60806040526040518060400160405280601581526020017f50686f656e697820546f6b656e20466163746f727900000000000000000000008152506001908051906020019062000051929190620000a6565b503480156200005f57600080fd5b50336000806101000a81548173ffffffffffffffffffffffffffffffffffffffff021916908373ffffffffffffffffffffffffffffffffffffffff160217905550620001bb565b828054620000b49062000156565b90600052602060002090601f016020900481019282620000d8576000855562000124565b82601f10620000f357805160ff191683800117855562000124565b8280016001018555821562000124579182015b828111156200012357825182559160200191906001019062000106565b5b50905062000133919062000137565b5090565b5b808211156200015257600081600090555060010162000138565b5090565b600060028204905060018216806200016f57607f821691505b602082108114156200018657620001856200018c565b5b50919050565b7f4e487b7100000000000000000000000000000000000000000000000000000000600052602260045260246000fd5b61374e80620001cb6000396000f3fe608060405260043610620000865760003560e01c8063da08c7871162000055578063da08c7871462000179578063e896359c14620001bd578063f9f8babc1462000201578063fe427e9514620002455762000086565b806375a361b7146200008b578063ab3f22d514620000cf578063b5b85ec414620000ef578063bdaf77fb1462000134575b600080fd5b3480156200009857600080fd5b50620000b76004803603810190620000b19190620014c8565b62000273565b604051620000c691906200175d565b60405180910390f35b620000ed6004803603810190620000e7919062001509565b620002e6565b005b348015620000fc57600080fd5b506200011b600480360381019062000115919062001405565b620005f4565b6040516200012b9291906200177a565b60405180910390f35b3480156200014157600080fd5b506200016060048036038101906200015a9190620014c8565b620006e5565b6040516200017092919062001853565b60405180910390f35b3480156200018657600080fd5b50620001a560048036038101906200019f919062001472565b6200084c565b604051620001b4919062001836565b60405180910390f35b348015620001ca57600080fd5b50620001e96004803603810190620001e39190620014c8565b62000938565b604051620001f8919062001836565b60405180910390f35b3480156200020e57600080fd5b506200022d6004803603810190620002279190620014c8565b6200098b565b6040516200023c919062001836565b60405180910390f35b3480156200025257600080fd5b506200027160048036038101906200026b919062001509565b620009e1565b005b60008083836040516020016200028b9291906200177a565b6040516020818303038152906040529050600681604051620002ae9190620016f8565b908152602001604051809103902060009054906101000a900473ffffffffffffffffffffffffffffffffffffffff1691505092915050565b60008383604051602001620002fd9291906200177a565b6040516020818303038152906040529050600073ffffffffffffffffffffffffffffffffffffffff16600682604051620003389190620016f8565b908152602001604051809103902060009054906101000a900473ffffffffffffffffffffffffffffffffffffffff1673ffffffffffffffffffffffffffffffffffffffff1614620003c0576040517f08c379a0000000000000000000000000000000000000000000000000000000008152600401620003b79062001814565b60405180910390fd5b6000600382604051620003d49190620016f8565b908152602001604051809103902060003373ffffffffffffffffffffffffffffffffffffffff1673ffffffffffffffffffffffffffffffffffffffff168152602001908152602001600020541415620004a957600481604051620004399190620016f8565b9081526020016040518091039020339080600181540180825580915050600190039060005260206000200160009091909190916101000a81548173ffffffffffffffffffffffffffffffffffffffff021916908373ffffffffffffffffffffffffffffffffffffffff1602179055505b34600282604051620004bc9190620016f8565b90815260200160405180910390206000828254620004db9190620018bd565b9250508190555034600382604051620004f59190620016f8565b908152602001604051809103902060003373ffffffffffffffffffffffffffffffffffffffff1673ffffffffffffffffffffffffffffffffffffffff1681526020019081526020016000206000828254620005519190620018bd565b92505081905550816002826040516200056b9190620016f8565b90815260200160405180910390205410620005ee577fa8c2ff89001e88e4c1f889764c2f759417a84968b1d45f089eb75ce33887c19e8484604051620005b39291906200177a565b60405180910390a1620005c68162000da6565b506000600282604051620005db9190620016f8565b9081526020016040518091039020819055505b50505050565b600080600760008473ffffffffffffffffffffffffffffffffffffffff1673ffffffffffffffffffffffffffffffffffffffff1681526020019081526020016000208054620006439062001a82565b80601f0160208091040260200160405190810160405280929190818152602001828054620006719062001a82565b8015620006c25780601f106200069657610100808354040283529160200191620006c2565b820191906000526020600020905b815481529060010190602001808311620006a457829003601f168201915b5050505050806020019051810190620006dc919062001431565b91509150915091565b60008060008484604051602001620006ff9291906200177a565b60405160208183030381529060405290506000600282604051620007249190620016f8565b90815260200160405180910390205414156200074857600080925092505062000845565b6003816040516200075a9190620016f8565b908152602001604051809103902060003373ffffffffffffffffffffffffffffffffffffffff1673ffffffffffffffffffffffffffffffffffffffff16815260200190815260200160002054600282604051620007b89190620016f8565b9081526020016040518091039020546064600384604051620007db9190620016f8565b908152602001604051809103902060003373ffffffffffffffffffffffffffffffffffffffff1673ffffffffffffffffffffffffffffffffffffffff1681526020019081526020016000205462000833919062001952565b6200083f91906200191a565b92509250505b9250929050565b60008060009054906101000a900473ffffffffffffffffffffffffffffffffffffffff1673ffffffffffffffffffffffffffffffffffffffff163373ffffffffffffffffffffffffffffffffffffffff1614620008a857600080fd5b60008383604051602001620008bf9291906200177a565b6040516020818303038152906040529050600381604051620008e29190620016f8565b908152602001604051809103902060008673ffffffffffffffffffffffffffffffffffffffff1673ffffffffffffffffffffffffffffffffffffffff168152602001908152602001600020549150509392505050565b6000808383604051602001620009509291906200177a565b6040516020818303038152906040529050600281604051620009739190620016f8565b90815260200160405180910390205491505092915050565b6000808383604051602001620009a39291906200177a565b6040516020818303038152906040529050600481604051620009c69190620016f8565b90815260200160405180910390208054905091505092915050565b60008383604051602001620009f89291906200177a565b6040516020818303038152906040529050600073ffffffffffffffffffffffffffffffffffffffff1660068260405162000a339190620016f8565b908152602001604051809103902060009054906101000a900473ffffffffffffffffffffffffffffffffffffffff1673ffffffffffffffffffffffffffffffffffffffff161462000abb576040517f08c379a000000000000000000000000000000000000000000000000000000000815260040162000ab29062001814565b60405180910390fd5b8160038260405162000ace9190620016f8565b908152602001604051809103902060003373ffffffffffffffffffffffffffffffffffffffff1673ffffffffffffffffffffffffffffffffffffffff16815260200190815260200160002054101562000b5e576040517f08c379a000000000000000000000000000000000000000000000000000000000815260040162000b5590620017f2565b60405180910390fd5b3373ffffffffffffffffffffffffffffffffffffffff166108fc839081150290604051600060405180830381858888f1935050505015801562000ba5573d6000803e3d6000fd5b508160028260405162000bb99190620016f8565b9081526020016040518091039020600082825462000bd89190620019b3565b925050819055508160038260405162000bf29190620016f8565b908152602001604051809103902060003373ffffffffffffffffffffffffffffffffffffffff1673ffffffffffffffffffffffffffffffffffffffff168152602001908152602001600020600082825462000c4e9190620019b3565b92505081905550600060038260405162000c699190620016f8565b908152602001604051809103902060003373ffffffffffffffffffffffffffffffffffffffff1673ffffffffffffffffffffffffffffffffffffffff16815260200190815260200160002054141562000da05760048160405162000cce9190620016f8565b908152602001604051809103902060058260405162000cee9190620016f8565b908152602001604051809103902060003373ffffffffffffffffffffffffffffffffffffffff1673ffffffffffffffffffffffffffffffffffffffff168152602001908152602001600020548154811062000d72577f4e487b7100000000000000000000000000000000000000000000000000000000600052603260045260246000fd5b9060005260206000200160006101000a81549073ffffffffffffffffffffffffffffffffffffffff02191690555b50505050565b60008062000e406040518060400160405280600881526020017f466172466c6172650000000000000000000000000000000000000000000000008152506040518060400160405280600281526020017f464600000000000000000000000000000000000000000000000000000000000081525060028660405162000e2b9190620016f8565b90815260200160405180910390205462000f0d565b90508060068460405162000e559190620016f8565b908152602001604051809103902060006101000a81548173ffffffffffffffffffffffffffffffffffffffff021916908373ffffffffffffffffffffffffffffffffffffffff16021790555082600760008373ffffffffffffffffffffffffffffffffffffffff1673ffffffffffffffffffffffffffffffffffffffff168152602001908152602001600020908051906020019062000ef6929190620012d4565b5062000f03818462000fa8565b6001915050919050565b6000808460405160200162000f23919062001711565b604051602081830303815290604052905060008460405160200162000f49919062001737565b6040516020818303038152906040529050600082828660405162000f6d9062001365565b62000f7b93929190620017a7565b604051809103906000f08015801562000f98573d6000803e3d6000fd5b5090508093505050509392505050565b60005b60048260405162000fbd9190620016f8565b908152602001604051809103902080549050811015620012cf57600060038360405162000feb9190620016f8565b908152602001604051809103902060006004856040516200100d9190620016f8565b9081526020016040518091039020848154811062001054577f4e487b7100000000000000000000000000000000000000000000000000000000600052603260045260246000fd5b9060005260206000200160009054906101000a900473ffffffffffffffffffffffffffffffffffffffff1673ffffffffffffffffffffffffffffffffffffffff1673ffffffffffffffffffffffffffffffffffffffff168152602001908152602001600020541115620012b9578273ffffffffffffffffffffffffffffffffffffffff1663a9059cbb600484604051620010ef9190620016f8565b9081526020016040518091039020838154811062001136577f4e487b7100000000000000000000000000000000000000000000000000000000600052603260045260246000fd5b9060005260206000200160009054906101000a900473ffffffffffffffffffffffffffffffffffffffff16600385604051620011739190620016f8565b90815260200160405180910390206000600487604051620011959190620016f8565b90815260200160405180910390208681548110620011dc577f4e487b7100000000000000000000000000000000000000000000000000000000600052603260045260246000fd5b9060005260206000200160009054906101000a900473ffffffffffffffffffffffffffffffffffffffff1673ffffffffffffffffffffffffffffffffffffffff1673ffffffffffffffffffffffffffffffffffffffff168152602001908152602001600020546040518363ffffffff1660e01b8152600401620012619291906200177a565b602060405180830381600087803b1580156200127c57600080fd5b505af115801562001291573d6000803e3d6000fd5b505050506040513d601f19601f82011682018060405250810190620012b791906200155f565b505b8080620012c69062001ab8565b91505062000fab565b505050565b828054620012e29062001a82565b90600052602060002090601f01602090048101928262001306576000855562001352565b82601f106200132157805160ff191683800117855562001352565b8280016001018555821562001352579182015b828111156200135157825182559160200191906001019062001334565b5b50905062001361919062001373565b5090565b611a688062001cb183390190565b5b808211156200138e57600081600090555060010162001374565b5090565b600081359050620013a38162001c48565b92915050565b600081519050620013ba8162001c62565b92915050565b600081519050620013d18162001c7c565b92915050565b600081359050620013e88162001c96565b92915050565b600081519050620013ff8162001c96565b92915050565b6000602082840312156200141857600080fd5b6000620014288482850162001392565b91505092915050565b600080604083850312156200144557600080fd5b60006200145585828601620013a9565b92505060206200146885828601620013ee565b9150509250929050565b6000806000606084860312156200148857600080fd5b6000620014988682870162001392565b9350506020620014ab8682870162001392565b9250506040620014be86828701620013d7565b9150509250925092565b60008060408385031215620014dc57600080fd5b6000620014ec8582860162001392565b9250506020620014ff85828601620013d7565b9150509250929050565b6000806000606084860312156200151f57600080fd5b60006200152f8682870162001392565b93505060206200154286828701620013d7565b92505060406200155586828701620013d7565b9150509250925092565b6000602082840312156200157257600080fd5b60006200158284828501620013c0565b91505092915050565b6200159681620019ee565b82525050565b6000620015a98262001880565b620015b5818562001896565b9350620015c781856020860162001a4c565b80840191505092915050565b6000620015e0826200188b565b620015ec8185620018a1565b9350620015fe81856020860162001a4c565b620016098162001b93565b840191505092915050565b600062001621826200188b565b6200162d8185620018b2565b93506200163f81856020860162001a4c565b80840191505092915050565b60006200165a601383620018a1565b9150620016678262001ba4565b602082019050919050565b600062001681600683620018b2565b91506200168e8262001bcd565b600682019050919050565b6000620016a8601f83620018a1565b9150620016b58262001bf6565b602082019050919050565b6000620016cf600583620018b2565b9150620016dc8262001c1f565b600582019050919050565b620016f28162001a42565b82525050565b60006200170682846200159c565b915081905092915050565b60006200171e8262001672565b91506200172c828462001614565b915081905092915050565b60006200174482620016c0565b915062001752828462001614565b915081905092915050565b60006020820190506200177460008301846200158b565b92915050565b60006040820190506200179160008301856200158b565b620017a06020830184620016e7565b9392505050565b60006060820190508181036000830152620017c38186620015d3565b90508181036020830152620017d98185620015d3565b9050620017ea6040830184620016e7565b949350505050565b600060208201905081810360008301526200180d816200164b565b9050919050565b600060208201905081810360008301526200182f8162001699565b9050919050565b60006020820190506200184d6000830184620016e7565b92915050565b60006040820190506200186a6000830185620016e7565b620018796020830184620016e7565b9392505050565b600081519050919050565b600081519050919050565b600081905092915050565b600082825260208201905092915050565b600081905092915050565b6000620018ca8262001a42565b9150620018d78362001a42565b9250827fffffffffffffffffffffffffffffffffffffffffffffffffffffffffffffffff038211156200190f576200190e62001b06565b5b828201905092915050565b6000620019278262001a42565b9150620019348362001a42565b92508262001947576200194662001b35565b5b828204905092915050565b60006200195f8262001a42565b91506200196c8362001a42565b9250817fffffffffffffffffffffffffffffffffffffffffffffffffffffffffffffffff0483118215151615620019a857620019a762001b06565b5b828202905092915050565b6000620019c08262001a42565b9150620019cd8362001a42565b925082821015620019e357620019e262001b06565b5b828203905092915050565b6000620019fb8262001a22565b9050919050565b600062001a0f8262001a22565b9050919050565b60008115159050919050565b600073ffffffffffffffffffffffffffffffffffffffff82169050919050565b6000819050919050565b60005b8381101562001a6c57808201518184015260208101905062001a4f565b8381111562001a7c576000848401525b50505050565b6000600282049050600182168062001a9b57607f821691505b6020821081141562001ab25762001ab162001b64565b5b50919050565b600062001ac58262001a42565b91507fffffffffffffffffffffffffffffffffffffffffffffffffffffffffffffffff82141562001afb5762001afa62001b06565b5b600182019050919050565b7f4e487b7100000000000000000000000000000000000000000000000000000000600052601160045260246000fd5b7f4e487b7100000000000000000000000000000000000000000000000000000000600052601260045260246000fd5b7f4e487b7100000000000000000000000000000000000000000000000000000000600052602260045260246000fd5b6000601f19601f8301169050919050565b7f5377697065722c204e6f2053776970696e672100000000000000000000000000600082015250565b7f53686172642d0000000000000000000000000000000000000000000000000000600082015250565b7f5468697320686173206265656e20616c72656164792073686174746572656400600082015250565b7f534852442d000000000000000000000000000000000000000000000000000000600082015250565b62001c5381620019ee565b811462001c5f57600080fd5b50565b62001c6d8162001a02565b811462001c7957600080fd5b50565b62001c878162001a16565b811462001c9357600080fd5b50565b62001ca18162001a42565b811462001cad57600080fd5b5056fe60806040523480156200001157600080fd5b5060405162001a6838038062001a6883398181016040528101906200003791906200032b565b8282816003908051906020019062000051929190620001f2565b5080600490805190602001906200006a929190620001f2565b5050506200007f33826200008860201b60201c565b50505062000684565b600073ffffffffffffffffffffffffffffffffffffffff168273ffffffffffffffffffffffffffffffffffffffff161415620000fb576040517f08c379a0000000000000000000000000000000000000000000000000000000008152600401620000f290620003eb565b60405180910390fd5b6200010f60008383620001ed60201b60201c565b80600260008282546200012391906200049a565b92505081905550806000808473ffffffffffffffffffffffffffffffffffffffff1673ffffffffffffffffffffffffffffffffffffffff16815260200190815260200160002060008282546200017a91906200049a565b925050819055508173ffffffffffffffffffffffffffffffffffffffff16600073ffffffffffffffffffffffffffffffffffffffff167fddf252ad1be2c89b69c2b068fc378daa952ba7f163c4a11628f55a4df523b3ef83604051620001e191906200040d565b60405180910390a35050565b505050565b828054620002009062000537565b90600052602060002090601f01602090048101928262000224576000855562000270565b82601f106200023f57805160ff191683800117855562000270565b8280016001018555821562000270579182015b828111156200026f57825182559160200191906001019062000252565b5b5090506200027f919062000283565b5090565b5b808211156200029e57600081600090555060010162000284565b5090565b6000620002b9620002b38462000453565b6200042a565b905082815260208101848484011115620002d257600080fd5b620002df84828562000501565b509392505050565b600082601f830112620002f957600080fd5b81516200030b848260208601620002a2565b91505092915050565b60008151905062000325816200066a565b92915050565b6000806000606084860312156200034157600080fd5b600084015167ffffffffffffffff8111156200035c57600080fd5b6200036a86828701620002e7565b935050602084015167ffffffffffffffff8111156200038857600080fd5b6200039686828701620002e7565b9250506040620003a98682870162000314565b9150509250925092565b6000620003c2601f8362000489565b9150620003cf8262000641565b602082019050919050565b620003e581620004f7565b82525050565b600060208201905081810360008301526200040681620003b3565b9050919050565b6000602082019050620004246000830184620003da565b92915050565b60006200043662000449565b90506200044482826200056d565b919050565b6000604051905090565b600067ffffffffffffffff82111562000471576200047062000601565b5b6200047c8262000630565b9050602081019050919050565b600082825260208201905092915050565b6000620004a782620004f7565b9150620004b483620004f7565b9250827fffffffffffffffffffffffffffffffffffffffffffffffffffffffffffffffff03821115620004ec57620004eb620005a3565b5b828201905092915050565b6000819050919050565b60005b838110156200052157808201518184015260208101905062000504565b8381111562000531576000848401525b50505050565b600060028204905060018216806200055057607f821691505b60208210811415620005675762000566620005d2565b5b50919050565b620005788262000630565b810181811067ffffffffffffffff821117156200059a576200059962000601565b5b80604052505050565b7f4e487b7100000000000000000000000000000000000000000000000000000000600052601160045260246000fd5b7f4e487b7100000000000000000000000000000000000000000000000000000000600052602260045260246000fd5b7f4e487b7100000000000000000000000000000000000000000000000000000000600052604160045260246000fd5b6000601f19601f8301169050919050565b7f45524332303a206d696e7420746f20746865207a65726f206164647265737300600082015250565b6200067581620004f7565b81146200068157600080fd5b50565b6113d480620006946000396000f3fe608060405234801561001057600080fd5b50600436106100a95760003560e01c80633950935111610071578063395093511461016857806370a082311461019857806395d89b41146101c8578063a457c2d7146101e6578063a9059cbb14610216578063dd62ed3e14610246576100a9565b806306fdde03146100ae578063095ea7b3146100cc57806318160ddd146100fc57806323b872dd1461011a578063313ce5671461014a575b600080fd5b6100b6610276565b6040516100c39190610e40565b60405180910390f35b6100e660048036038101906100e19190610c8e565b610308565b6040516100f39190610e25565b60405180910390f35b610104610326565b6040516101119190610f42565b60405180910390f35b610134600480360381019061012f9190610c3f565b610330565b6040516101419190610e25565b60405180910390f35b610152610431565b60405161015f9190610f5d565b60405180910390f35b610182600480360381019061017d9190610c8e565b61043a565b60405161018f9190610e25565b60405180910390f35b6101b260048036038101906101ad9190610bda565b6104e6565b6040516101bf9190610f42565b60405180910390f35b6101d061052e565b6040516101dd9190610e40565b60405180910390f35b61020060048036038101906101fb9190610c8e565b6105c0565b60405161020d9190610e25565b60405180910390f35b610230600480360381019061022b9190610c8e565b6106b4565b60405161023d9190610e25565b60405180910390f35b610260600480360381019061025b9190610c03565b6106d2565b60405161026d9190610f42565b60405180910390f35b606060038054610285906110a6565b80601f01602080910402602001604051908101604052809291908181526020018280546102b1906110a6565b80156102fe5780601f106102d3576101008083540402835291602001916102fe565b820191906000526020600020905b8154815290600101906020018083116102e157829003601f168201915b5050505050905090565b600061031c610315610759565b8484610761565b6001905092915050565b6000600254905090565b600061033d84848461092c565b6000600160008673ffffffffffffffffffffffffffffffffffffffff1673ffffffffffffffffffffffffffffffffffffffff1681526020019081526020016000206000610388610759565b73ffffffffffffffffffffffffffffffffffffffff1673ffffffffffffffffffffffffffffffffffffffff16815260200190815260200160002054905082811015610408576040517f08c379a00000000000000000000000000000000000000000000000000000000081526004016103ff90610ec2565b60405180910390fd5b61042585610414610759565b85846104209190610fea565b610761565b60019150509392505050565b60006012905090565b60006104dc610447610759565b848460016000610455610759565b73ffffffffffffffffffffffffffffffffffffffff1673ffffffffffffffffffffffffffffffffffffffff16815260200190815260200160002060008873ffffffffffffffffffffffffffffffffffffffff1673ffffffffffffffffffffffffffffffffffffffff168152602001908152602001600020546104d79190610f94565b610761565b6001905092915050565b60008060008373ffffffffffffffffffffffffffffffffffffffff1673ffffffffffffffffffffffffffffffffffffffff168152602001908152602001600020549050919050565b60606004805461053d906110a6565b80601f0160208091040260200160405190810160405280929190818152602001828054610569906110a6565b80156105b65780601f1061058b576101008083540402835291602001916105b6565b820191906000526020600020905b81548152906001019060200180831161059957829003601f168201915b5050505050905090565b600080600160006105cf610759565b73ffffffffffffffffffffffffffffffffffffffff1673ffffffffffffffffffffffffffffffffffffffff16815260200190815260200160002060008573ffffffffffffffffffffffffffffffffffffffff1673ffffffffffffffffffffffffffffffffffffffff1681526020019081526020016000205490508281101561068c576040517f08c379a000000000000000000000000000000000000000000000000000000000815260040161068390610f22565b60405180910390fd5b6106a9610697610759565b8585846106a49190610fea565b610761565b600191505092915050565b60006106c86106c1610759565b848461092c565b6001905092915050565b6000600160008473ffffffffffffffffffffffffffffffffffffffff1673ffffffffffffffffffffffffffffffffffffffff16815260200190815260200160002060008373ffffffffffffffffffffffffffffffffffffffff1673ffffffffffffffffffffffffffffffffffffffff16815260200190815260200160002054905092915050565b600033905090565b600073ffffffffffffffffffffffffffffffffffffffff168373ffffffffffffffffffffffffffffffffffffffff1614156107d1576040517f08c379a00000000000000000000000000000000000000000000000000000000081526004016107c890610f02565b60405180910390fd5b600073ffffffffffffffffffffffffffffffffffffffff168273ffffffffffffffffffffffffffffffffffffffff161415610841576040517f08c379a000000000000000000000000000000000000000000000000000000000815260040161083890610e82565b60405180910390fd5b80600160008573ffffffffffffffffffffffffffffffffffffffff1673ffffffffffffffffffffffffffffffffffffffff16815260200190815260200160002060008473ffffffffffffffffffffffffffffffffffffffff1673ffffffffffffffffffffffffffffffffffffffff168152602001908152602001600020819055508173ffffffffffffffffffffffffffffffffffffffff168373ffffffffffffffffffffffffffffffffffffffff167f8c5be1e5ebec7d5bd14f71427d1e84f3dd0314c0f7b2291e5b200ac8c7c3b9258360405161091f9190610f42565b60405180910390a3505050565b600073ffffffffffffffffffffffffffffffffffffffff168373ffffffffffffffffffffffffffffffffffffffff16141561099c576040517f08c379a000000000000000000000000000000000000000000000000000000000815260040161099390610ee2565b60405180910390fd5b600073ffffffffffffffffffffffffffffffffffffffff168273ffffffffffffffffffffffffffffffffffffffff161415610a0c576040517f08c379a0000000000000000000000000000000000000000000000000000000008152600401610a0390610e62565b60405180910390fd5b610a17838383610bab565b60008060008573ffffffffffffffffffffffffffffffffffffffff1673ffffffffffffffffffffffffffffffffffffffff16815260200190815260200160002054905081811015610a9d576040517f08c379a0000000000000000000000000000000000000000000000000000000008152600401610a9490610ea2565b60405180910390fd5b8181610aa99190610fea565b6000808673ffffffffffffffffffffffffffffffffffffffff1673ffffffffffffffffffffffffffffffffffffffff16815260200190815260200160002081905550816000808573ffffffffffffffffffffffffffffffffffffffff1673ffffffffffffffffffffffffffffffffffffffff1681526020019081526020016000206000828254610b399190610f94565b925050819055508273ffffffffffffffffffffffffffffffffffffffff168473ffffffffffffffffffffffffffffffffffffffff167fddf252ad1be2c89b69c2b068fc378daa952ba7f163c4a11628f55a4df523b3ef84604051610b9d9190610f42565b60405180910390a350505050565b505050565b600081359050610bbf81611370565b92915050565b600081359050610bd481611387565b92915050565b600060208284031215610bec57600080fd5b6000610bfa84828501610bb0565b91505092915050565b60008060408385031215610c1657600080fd5b6000610c2485828601610bb0565b9250506020610c3585828601610bb0565b9150509250929050565b600080600060608486031215610c5457600080fd5b6000610c6286828701610bb0565b9350506020610c7386828701610bb0565b9250506040610c8486828701610bc5565b9150509250925092565b60008060408385031215610ca157600080fd5b6000610caf85828601610bb0565b9250506020610cc085828601610bc5565b9150509250929050565b610cd381611030565b82525050565b6000610ce482610f78565b610cee8185610f83565b9350610cfe818560208601611073565b610d0781611136565b840191505092915050565b6000610d1f602383610f83565b9150610d2a82611147565b604082019050919050565b6000610d42602283610f83565b9150610d4d82611196565b604082019050919050565b6000610d65602683610f83565b9150610d70826111e5565b604082019050919050565b6000610d88602883610f83565b9150610d9382611234565b604082019050919050565b6000610dab602583610f83565b9150610db682611283565b604082019050919050565b6000610dce602483610f83565b9150610dd9826112d2565b604082019050919050565b6000610df1602583610f83565b9150610dfc82611321565b604082019050919050565b610e108161105c565b82525050565b610e1f81611066565b82525050565b6000602082019050610e3a6000830184610cca565b92915050565b60006020820190508181036000830152610e5a8184610cd9565b905092915050565b60006020820190508181036000830152610e7b81610d12565b9050919050565b60006020820190508181036000830152610e9b81610d35565b9050919050565b60006020820190508181036000830152610ebb81610d58565b9050919050565b60006020820190508181036000830152610edb81610d7b565b9050919050565b60006020820190508181036000830152610efb81610d9e565b9050919050565b60006020820190508181036000830152610f1b81610dc1565b9050919050565b60006020820190508181036000830152610f3b81610de4565b9050919050565b6000602082019050610f576000830184610e07565b92915050565b6000602082019050610f726000830184610e16565b92915050565b600081519050919050565b600082825260208201905092915050565b6000610f9f8261105c565b9150610faa8361105c565b9250827fffffffffffffffffffffffffffffffffffffffffffffffffffffffffffffffff03821115610fdf57610fde6110d8565b5b828201905092915050565b6000610ff58261105c565b91506110008361105c565b925082821015611013576110126110d8565b5b828203905092915050565b60006110298261103c565b9050919050565b60008115159050919050565b600073ffffffffffffffffffffffffffffffffffffffff82169050919050565b6000819050919050565b600060ff82169050919050565b60005b83811015611091578082015181840152602081019050611076565b838111156110a0576000848401525b50505050565b600060028204905060018216806110be57607f821691505b602082108114156110d2576110d1611107565b5b50919050565b7f4e487b7100000000000000000000000000000000000000000000000000000000600052601160045260246000fd5b7f4e487b7100000000000000000000000000000000000000000000000000000000600052602260045260246000fd5b6000601f19601f8301169050919050565b7f45524332303a207472616e7366657220746f20746865207a65726f206164647260008201527f6573730000000000000000000000000000000000000000000000000000000000602082015250565b7f45524332303a20617070726f766520746f20746865207a65726f20616464726560008201527f7373000000000000000000000000000000000000000000000000000000000000602082015250565b7f45524332303a207472616e7366657220616d6f756e742065786365656473206260008201527f616c616e63650000000000000000000000000000000000000000000000000000602082015250565b7f45524332303a207472616e7366657220616d6f756e742065786365656473206160008201527f6c6c6f77616e6365000000000000000000000000000000000000000000000000602082015250565b7f45524332303a207472616e736665722066726f6d20746865207a65726f20616460008201527f6472657373000000000000000000000000000000000000000000000000000000602082015250565b7f45524332303a20617070726f76652066726f6d20746865207a65726f2061646460008201527f7265737300000000000000000000000000000000000000000000000000000000602082015250565b7f45524332303a2064656372656173656420616c6c6f77616e63652062656c6f7760008201527f207a65726f000000000000000000000000000000000000000000000000000000602082015250565b6113798161101e565b811461138457600080fd5b50565b6113908161105c565b811461139b57600080fd5b5056fea2646970667358221220d88f358001447196d5500d50523102718059a4682dce59e62bda45cc001f8f1364736f6c63430008040033a2646970667358221220de90424b48616f86132d7bb58d3bc8a7c4c1e7ab76ccb9b17bd61d920e51f7e864736f6c63430008040033",
  "immutableReferences": {},
  "source": "pragma solidity ^0.8.0;\n//  Rinkeby - '0xCBc6a221aB417FbDb316b7D06bcD74ec4d611638'\nimport \"./ShardToken.sol\";\n//import \"../libs/RaribleLib.sol\";\nimport \"@openzeppelin/contracts/token/ERC20/ERC20.sol\";\n\n\ncontract Phoenix {\n    address private _owner;\n    string private _name = \"Phoenix Token Factory\";\n    mapping (bytes => uint) private _total_locked;  // abi.encode(address item_address, uint item_id) => value_locked\n    mapping (bytes => mapping (address => uint)) private _locks;  // abi.encode(address item_address, uint item_id) => investor => value\n\n    mapping (bytes => address[]) private _participants;  // abi.encode(address item_address, uint item_id) => investor[]\n    mapping (bytes => mapping (address => uint)) private _participants_index;  // abi.encode(address item_address, uint item_id) => investor_address => address_index\n\n    mapping (bytes => address) private _shards;  // abi.encode(address item_address, uint item_id) => emission_address\n    mapping (address => bytes) private _shattered;  // emission_address => abi.encode(address item_address, uint item_id)\n\n//    event Allocation(address from, address item_address, uint item_id, uint item_price);\n    event Shatter(address item_address, uint item_id);\n    event ShardsTransaction(address who);\n\n    constructor() {\n        _owner = msg.sender;\n    }\n\n    function allocate(address item_address_, uint item_id_, uint item_price_) public payable {\n        // With the new Rarible contract2contract API item_price_ should be get inside this func\n        // In current realization some geeks can get over-allocation. This feature will be implemented in the next release, so it's fine\n        bytes memory item_key = abi.encode(item_address_, item_id_);\n        require(_shards[item_key] == address(0), \"This has been already shattered\");  // Do not let geeks pass item_price_ and bury their ETH\n        if (_locks[item_key][msg.sender] == 0) {  // New participant\n            _participants[item_key].push(msg.sender);\n        }\n        _total_locked[item_key] += msg.value;\n        _locks[item_key][msg.sender] += msg.value;\n        if(_total_locked[item_key] >= item_price_) {  // For now shouldn't be higher, but may be\n            // ToDo Buy NFT via Rarible contract2contract. If success, then...\n            emit Shatter(item_address_, item_id_);\n            _spawn(item_key);\n            _total_locked[item_key] = 0;\n        }\n    }\n\n    // ToDo make deallocate for all. If the item was sold, we should transfer back ETH for investors and delete _participants\n    function deallocate(address item_address_, uint item_id_, uint value) public {\n        bytes memory item_key = abi.encode(item_address_, item_id_);\n\n        require(_shards[item_key] == address(0), \"This has been already shattered\");\n        require(_locks[item_key][msg.sender] >= value, \"Swiper, No Swiping!\");\n        payable(msg.sender).transfer(value);\n        _total_locked[item_key] -= value;\n        _locks[item_key][msg.sender] -= value;\n        if (_locks[item_key][msg.sender] == 0) {\n            delete _participants[item_key][_participants_index[item_key][msg.sender]];\n        }\n    }\n\n    // Get ETH in lock and % of total locks for msg.sender\n    function getAllocation(address item_address_, uint item_id_) public view returns(uint, uint){\n        bytes memory item_key = abi.encode(item_address_, item_id_);\n\n        if (_total_locked[item_key] == 0) {\n            return (0, 0);\n        } else {\n            return (_locks[item_key][msg.sender], _locks[item_key][msg.sender]*100/_total_locked[item_key]);\n        }\n    }\n\n    // Get total locked ETH for the item\n    function totalLockedFor(address item_address_, uint item_id_) public view returns(uint){\n        bytes memory item_key = abi.encode(item_address_, item_id_);\n\n        return _total_locked[item_key];\n    }\n\n    // For debug purposes only\n    function locksFor(address shareholder_, address item_address_, uint item_id_) public view returns (uint){\n        require(msg.sender == _owner);\n        bytes memory item_key = abi.encode(item_address_, item_id_);\n        return _locks[item_key][shareholder_];\n    }\n\n    // For debug purposes only\n    function participantsFor(address item_address_, uint item_id_) public view returns (uint){\n        bytes memory item_key = abi.encode(item_address_, item_id_);\n        return _participants[item_key].length;\n    }\n\n    function shards(address item_address_, uint item_id_) public view returns (address){\n        bytes memory item_key = abi.encode(item_address_, item_id_);\n        return _shards[item_key];\n    }\n\n    function shattered(address shard_token_address_) public view returns (address, uint){\n        return abi.decode(_shattered[shard_token_address_], (address, uint));\n    }\n\n    // Main function for creating and distributing new tokens\n    function _spawn(bytes memory item_key_) private returns (bool) {\n        ShardToken token = _newEmission(\"FarFlare\", \"FF\", _total_locked[item_key_]);  // ToDo get NFT name?\n        _shards[item_key_] = address(token);\n        _shattered[address(token)] = item_key_;\n        _distributeEmission(token, item_key_);  // Emission equals to total_locked of wei. ToDo Revise (too huge values?)\n        return true;\n    }\n\n    function _newEmission(string memory name_postfix_, string memory symbol_postfix_, uint supply_) private returns (ShardToken) {\n        string memory name = string(abi.encodePacked(\"Shard-\", name_postfix_));\n        string memory symbol = string(abi.encodePacked(\"SHRD-\", symbol_postfix_));\n        ShardToken procreation = new ShardToken(name, symbol, supply_);\n        return procreation;\n    }\n\n    function _distributeEmission(ShardToken emission_, bytes memory item_key_) private {\n        for (uint i = 0; i < _participants[item_key_].length; i++) {  // ToDo try to avoid cycle, support allocation via one transaction\n            if (_locks[item_key_][_participants[item_key_][i]] > 0){  // If user didn't deallocate() to 0\n                emission_.transfer(_participants[item_key_][i], _locks[item_key_][_participants[item_key_][i]]);\n            }\n        }\n    }\n}\n\n",
  "sourcePath": "/Users/y.sosunov/git/far_flare/satellites/contracts/phoenix/Phoenix.sol",
  "compiler": {
    "name": "solc",
    "version": "0.8.4+commit.c7e474f2.Emscripten.clang"
  },
  "schemaVersion": "3.3.4",
  "updatedAt": "2021-06-13T07:30:39.075Z",
  "devdoc": {
    "kind": "dev",
    "methods": {},
    "version": 1
  },
  "userdoc": {
    "kind": "user",
    "methods": {},
    "version": 1
  }
}