{
  "contractName": "Phoenix",
  "abi": [
    {
      "inputs": [],
      "stateMutability": "nonpayable",
      "type": "constructor"
    },
    {
      "inputs": [
        {
          "internalType": "address",
          "name": "item_",
          "type": "address"
        }
      ],
      "name": "allocate",
      "outputs": [],
      "stateMutability": "payable",
      "type": "function",
      "payable": true
    },
    {
      "inputs": [
        {
          "internalType": "address",
          "name": "item_",
          "type": "address"
        },
        {
          "internalType": "uint256",
          "name": "value",
          "type": "uint256"
        }
      ],
      "name": "deallocate",
      "outputs": [],
      "stateMutability": "nonpayable",
      "type": "function"
    },
    {
      "inputs": [
        {
          "internalType": "address",
          "name": "item_",
          "type": "address"
        }
      ],
      "name": "getAllocation",
      "outputs": [
        {
          "internalType": "uint256",
          "name": "",
          "type": "uint256"
        },
        {
          "internalType": "uint256",
          "name": "",
          "type": "uint256"
        }
      ],
      "stateMutability": "view",
      "type": "function",
      "constant": true
    },
    {
      "inputs": [
        {
          "internalType": "address",
          "name": "shareholder",
          "type": "address"
        },
        {
          "internalType": "address",
          "name": "item",
          "type": "address"
        }
      ],
      "name": "locksFor",
      "outputs": [
        {
          "internalType": "uint256",
          "name": "",
          "type": "uint256"
        }
      ],
      "stateMutability": "view",
      "type": "function",
      "constant": true
    }
  ],
  "bytecode": "0x60806040526040518060400160405280601581526020017f50686f656e697820546f6b656e20466163746f727900000000000000000000008152506001908051906020019061004f9291906100a2565b5034801561005c57600080fd5b50336000806101000a81548173ffffffffffffffffffffffffffffffffffffffff021916908373ffffffffffffffffffffffffffffffffffffffff1602179055506101a6565b8280546100ae90610145565b90600052602060002090601f0160209004810192826100d05760008555610117565b82601f106100e957805160ff1916838001178555610117565b82800160010185558215610117579182015b828111156101165782518255916020019190600101906100fb565b5b5090506101249190610128565b5090565b5b80821115610141576000816000905550600101610129565b5090565b6000600282049050600182168061015d57607f821691505b6020821081141561017157610170610177565b5b50919050565b7f4e487b7100000000000000000000000000000000000000000000000000000000600052602260045260246000fd5b610a48806101b56000396000f3fe60806040526004361061003f5760003560e01c80630e022923146100445780632b21e7151461008257806359db9eb0146100bf578063ffd7d983146100e8575b600080fd5b34801561005057600080fd5b5061006b6004803603810190610066919061069e565b610104565b6040516100799291906107ac565b60405180910390f35b34801561008e57600080fd5b506100a960048036038101906100a491906106c7565b6102b5565b6040516100b69190610791565b60405180910390f35b3480156100cb57600080fd5b506100e660048036038101906100e19190610703565b610395565b005b61010260048036038101906100fd919061069e565b610588565b005b6000806000600360008573ffffffffffffffffffffffffffffffffffffffff1673ffffffffffffffffffffffffffffffffffffffff16815260200190815260200160002054141561015b57600080915091506102b0565b600460008473ffffffffffffffffffffffffffffffffffffffff1673ffffffffffffffffffffffffffffffffffffffff16815260200190815260200160002060003373ffffffffffffffffffffffffffffffffffffffff1673ffffffffffffffffffffffffffffffffffffffff16815260200190815260200160002054600360008573ffffffffffffffffffffffffffffffffffffffff1673ffffffffffffffffffffffffffffffffffffffff168152602001908152602001600020546064600460008773ffffffffffffffffffffffffffffffffffffffff1673ffffffffffffffffffffffffffffffffffffffff16815260200190815260200160002060003373ffffffffffffffffffffffffffffffffffffffff1673ffffffffffffffffffffffffffffffffffffffff168152602001908152602001600020546102a1919061086d565b6102ab919061083c565b915091505b915091565b60008060009054906101000a900473ffffffffffffffffffffffffffffffffffffffff1673ffffffffffffffffffffffffffffffffffffffff163373ffffffffffffffffffffffffffffffffffffffff161461031057600080fd5b600460008373ffffffffffffffffffffffffffffffffffffffff1673ffffffffffffffffffffffffffffffffffffffff16815260200190815260200160002060008473ffffffffffffffffffffffffffffffffffffffff1673ffffffffffffffffffffffffffffffffffffffff16815260200190815260200160002054905092915050565b80600460008473ffffffffffffffffffffffffffffffffffffffff1673ffffffffffffffffffffffffffffffffffffffff16815260200190815260200160002060003373ffffffffffffffffffffffffffffffffffffffff1673ffffffffffffffffffffffffffffffffffffffff168152602001908152602001600020541015610454576040517f08c379a000000000000000000000000000000000000000000000000000000000815260040161044b90610771565b60405180910390fd5b3373ffffffffffffffffffffffffffffffffffffffff166108fc829081150290604051600060405180830381858888f1935050505015801561049a573d6000803e3d6000fd5b5080600360008473ffffffffffffffffffffffffffffffffffffffff1673ffffffffffffffffffffffffffffffffffffffff16815260200190815260200160002060008282546104ea91906108c7565b9250508190555080600460008473ffffffffffffffffffffffffffffffffffffffff1673ffffffffffffffffffffffffffffffffffffffff16815260200190815260200160002060003373ffffffffffffffffffffffffffffffffffffffff1673ffffffffffffffffffffffffffffffffffffffff168152602001908152602001600020600082825461057d91906108c7565b925050819055505050565b34600360008373ffffffffffffffffffffffffffffffffffffffff1673ffffffffffffffffffffffffffffffffffffffff16815260200190815260200160002060008282546105d791906107e6565b9250508190555034600460008373ffffffffffffffffffffffffffffffffffffffff1673ffffffffffffffffffffffffffffffffffffffff16815260200190815260200160002060003373ffffffffffffffffffffffffffffffffffffffff1673ffffffffffffffffffffffffffffffffffffffff168152602001908152602001600020600082825461066a91906107e6565b9250508190555050565b600081359050610683816109e4565b92915050565b600081359050610698816109fb565b92915050565b6000602082840312156106b057600080fd5b60006106be84828501610674565b91505092915050565b600080604083850312156106da57600080fd5b60006106e885828601610674565b92505060206106f985828601610674565b9150509250929050565b6000806040838503121561071657600080fd5b600061072485828601610674565b925050602061073585828601610689565b9150509250929050565b600061074c602e836107d5565b915061075782610995565b604082019050919050565b61076b8161092d565b82525050565b6000602082019050818103600083015261078a8161073f565b9050919050565b60006020820190506107a66000830184610762565b92915050565b60006040820190506107c16000830185610762565b6107ce6020830184610762565b9392505050565b600082825260208201905092915050565b60006107f18261092d565b91506107fc8361092d565b9250827fffffffffffffffffffffffffffffffffffffffffffffffffffffffffffffffff0382111561083157610830610937565b5b828201905092915050565b60006108478261092d565b91506108528361092d565b92508261086257610861610966565b5b828204905092915050565b60006108788261092d565b91506108838361092d565b9250817fffffffffffffffffffffffffffffffffffffffffffffffffffffffffffffffff04831182151516156108bc576108bb610937565b5b828202905092915050565b60006108d28261092d565b91506108dd8361092d565b9250828210156108f0576108ef610937565b5b828203905092915050565b60006109068261090d565b9050919050565b600073ffffffffffffffffffffffffffffffffffffffff82169050919050565b6000819050919050565b7f4e487b7100000000000000000000000000000000000000000000000000000000600052601160045260246000fd5b7f4e487b7100000000000000000000000000000000000000000000000000000000600052601260045260246000fd5b7f596f752063616e2774206465616c6c6f63617465206d6f72652073686172652060008201527f7468616e20796f75206861766521000000000000000000000000000000000000602082015250565b6109ed816108fb565b81146109f857600080fd5b50565b610a048161092d565b8114610a0f57600080fd5b5056fea264697066735822122065021a831a59b99eecf4136fc84e57cce0f24d0a2b691ba3c519bf21eff0b94564736f6c63430008040033",
  "immutableReferences": {},
  "source": "pragma solidity ^0.8.0;\nimport \"./ShardToken.sol\";\nimport \"../libs/RaribleLib.sol\";\nimport \"@openzeppelin/contracts/token/ERC20/ERC20.sol\";\n\n\ncontract Phoenix {\n    address private _owner;\n    string private _name = \"Phoenix Token Factory\";\n    address[] private _emissions;  // Is it fine to delete from array in Solidity? Maybe I should use map?\n    mapping (address => uint) private _total_locked;\n    mapping (address => mapping (address => uint)) private _locks;\n\n    constructor() {\n        _owner = msg.sender;\n    }\n\n    function allocate(address item_) public payable {\n        // ToDo check msg.value is not higher than item price\n        _total_locked[item_] += msg.value;\n        _locks[item_][msg.sender] += msg.value;\n    }\n\n    function deallocate(address item_, uint value) public {\n        require(_locks[item_][msg.sender] >= value, \"You can't deallocate more share than you have!\");\n        payable(msg.sender).transfer(value);\n        _total_locked[item_] -= value;\n        _locks[item_][msg.sender] -= value;\n    }\n\n    function getAllocation(address item_) public view returns (uint, uint){\n        if (_total_locked[item_] == 0) {\n            return (0, 0);\n        } else {\n            return (_locks[item_][msg.sender], _locks[item_][msg.sender]*100/_total_locked[item_]);\n        }\n    }\n\n    // For debug purposes\n    function locksFor(address shareholder, address item) public view returns (uint){\n        require(msg.sender == _owner);\n        return _locks[item][shareholder];\n    }\n\n//    function _rarible_make_order(address item_, uint price_, uint nft_owner_) private{\n//        //    Eth Asset. ToDo move to rarible_make_order\n//        RaribleStructs.Asset eth_asset = RaribleStructs.Asset(\n//            RaribleStructs.AssetType(\"0xaaaebeba\", \"0x\"),\n//            _total_locked[item_]\n//        );\n//        RaribleStructs.Asset erc721_asset = RaribleStructs.Asset(\n//            RaribleStructs.AssetType(\"0x73ad2146\", \"0x\"),\n//            price_\n//        );\n//\n//        RaribleStructs.Order order = RaribleStructs.Order(\n//            address(self),\n//            eth_asset,\n//            nft_owner_,\n//            erc721_asset\n//\n//        );\n//        //    accounts[2], Asset(ETH, \"0x\", 200), ZERO, Asset(ERC20, enc(t1.address), 100), 1, 0, 0, \"0xffffffff\", \"0x\"\n//    }\n\n    // Main function for creating and distributing new tokens\n    function _spawn() private returns (bool) {\n        ShardToken token = _newEmission(\"Test\", \"Tst\");\n        _distributeEmission(token);\n        return true;\n    }\n\n    function _newEmission(string memory name_postfix, string memory symbol_postfix) private returns (ShardToken) {\n        string memory name = string(abi.encodePacked(\"Creature \", name_postfix));\n        string memory symbol = string(abi.encodePacked(\"Phnx\", symbol_postfix));\n        ShardToken procreation = new ShardToken(name, symbol, 100);\n        _emissions.push(address(procreation));\n        return procreation;\n    }\n\n    function _distributeEmission(ShardToken emission) private {\n        emission.transfer(tx.origin, emission.totalSupply());\n    }\n}\n\n",
  "sourcePath": "/Users/y.sosunov/git/far_flare/satellites/contracts/phoenix/Phoenix.sol",
  "compiler": {
    "name": "solc",
    "version": "0.8.4+commit.c7e474f2.Emscripten.clang"
  },
  "schemaVersion": "3.3.4",
  "updatedAt": "2021-06-12T09:32:11.052Z",
  "networkType": "ethereum",
  "devdoc": {
    "kind": "dev",
    "methods": {},
    "version": 1
  },
  "userdoc": {
    "kind": "user",
    "methods": {},
    "version": 1
  }
}